{
  "contractName": "Uptxt",
  "abi": [
    {
      "constant": false,
      "inputs": [
        {
          "name": "article_adr",
          "type": "string"
        }
      ],
      "name": "uploadArticle",
      "outputs": [
        {
          "name": "",
          "type": "uint256"
        }
      ],
      "payable": false,
      "stateMutability": "nonpayable",
      "type": "function"
    },
    {
      "constant": false,
      "inputs": [
        {
          "name": "id",
          "type": "uint256"
        }
      ],
      "name": "getArticle",
      "outputs": [
        {
          "name": "article_adr",
          "type": "string"
        }
      ],
      "payable": false,
      "stateMutability": "nonpayable",
      "type": "function"
    },
    {
      "constant": false,
      "inputs": [
        {
          "name": "id",
          "type": "uint256"
        }
      ],
      "name": "getReadnum",
      "outputs": [
        {
          "name": "ReadNum",
          "type": "uint256"
        }
      ],
      "payable": false,
      "stateMutability": "nonpayable",
      "type": "function"
    },
    {
      "constant": false,
      "inputs": [
        {
          "name": "id",
          "type": "uint256"
        }
      ],
      "name": "setReadPower",
      "outputs": [
        {
          "name": "is_success",
          "type": "bool"
        }
      ],
      "payable": false,
      "stateMutability": "nonpayable",
      "type": "function"
    },
    {
      "constant": false,
      "inputs": [
        {
          "name": "id",
          "type": "uint256"
        }
      ],
      "name": "checkReadPower",
      "outputs": [
        {
          "name": "ReadPower",
          "type": "bool"
        }
      ],
      "payable": false,
      "stateMutability": "nonpayable",
      "type": "function"
    }
  ],
  "bytecode": "0x608060405234801561001057600080fd5b506107c7806100206000396000f30060806040526004361061006d576000357c0100000000000000000000000000000000000000000000000000000000900463ffffffff16806313b8320f14610072578063477adde9146100b3578063493d9215146100f8578063bd85d8671461013d578063f43f51bf146101e3575b600080fd5b34801561007e57600080fd5b5061009d60048036038101908080359060200190929190505050610260565b6040518082815260200191505060405180910390f35b3480156100bf57600080fd5b506100de600480360381019080803590602001909291905050506102a3565b604051808215151515815260200191505060405180910390f35b34801561010457600080fd5b50610123600480360381019080803590602001909291905050506103c6565b604051808215151515815260200191505060405180910390f35b34801561014957600080fd5b50610168600480360381019080803590602001909291905050506103f7565b6040518080602001828103825283818151815260200191508051906020019080838360005b838110156101a857808201518184015260208101905061018d565b50505050905090810190601f1680156101d55780820380516001836020036101000a031916815260200191505b509250505060405180910390f35b3480156101ef57600080fd5b5061024a600480360381019080803590602001908201803590602001908080601f01602080910402602001604051908101604052809392919081815260200183838082843782019150505050505091929192905050506105e5565b6040518082815260200191505060405180910390f35b6000806001548311806102735750600083105b15610281576000915061029d565b6000808481526020019081526020016000209050806003015491505b50919050565b6000806001548311806102b65750600083105b156102c457600091506103c0565b60008084815260200190815260200160002090503373ffffffffffffffffffffffffffffffffffffffff168160000160009054906101000a900473ffffffffffffffffffffffffffffffffffffffff1673ffffffffffffffffffffffffffffffffffffffff1614151561033a57600091506103bf565b60019150600115158160040160009054906101000a900460ff161515141561038f57600080600085815260200190815260200160002060040160006101000a81548160ff0219169083151502179055506103be565b600160008085815260200190815260200160002060040160006101000a81548160ff0219169083151502179055505b5b5b50919050565b60008060008084815260200190815260200160002090508060040160009054906101000a900460ff16915050919050565b6060600060015483118061040b5750600083105b1561044d576040805190810160405280600981526020017f6572726f7220696421000000000000000000000000000000000000000000000081525091506105df565b60008084815260200190815260200160002090503373ffffffffffffffffffffffffffffffffffffffff168160000160009054906101000a900473ffffffffffffffffffffffffffffffffffffffff1673ffffffffffffffffffffffffffffffffffffffff16141580156104d75750600115158160040160009054906101000a900460ff16151514155b15610519576040805190810160405280601d81526020017f596f7520646f6e2774206861766520706f77657220746f20726561642100000081525091506105de565b806001018054600181600116156101000203166002900480601f0160208091040260200160405190810160405280929190818152602001828054600181600116156101000203166002900480156105b15780601f10610586576101008083540402835291602001916105b1565b820191906000526020600020905b81548152906001019060200180831161059457829003601f168201915b50505050509150600080848152602001908152602001600020600301600081548092919060010191905055505b5b50919050565b600060016000815480929190600101919050555060a0604051908101604052803373ffffffffffffffffffffffffffffffffffffffff16815260200183815260200160015481526020016000815260200160011515815250600080600154815260200190815260200160002060008201518160000160006101000a81548173ffffffffffffffffffffffffffffffffffffffff021916908373ffffffffffffffffffffffffffffffffffffffff16021790555060208201518160010190805190602001906106b49291906106f6565b50604082015181600201556060820151816003015560808201518160040160006101000a81548160ff0219169083151502179055509050506001549050919050565b828054600181600116156101000203166002900490600052602060002090601f016020900481019282601f1061073757805160ff1916838001178555610765565b82800160010185558215610765579182015b82811115610764578251825591602001919060010190610749565b5b5090506107729190610776565b5090565b61079891905b8082111561079457600081600090555060010161077c565b5090565b905600a165627a7a723058207d7a530630de405894865cf1063178a0a982a509519613eea07133eb3da633270029",
  "source": "pragma solidity ^ 0.4 .17;\r\n\r\ncontract Uptxt {\r\n\r\n    struct Article {\r\n        //作者的以太坊地址\r\n        address author_adr;\r\n        //文章地址\r\n        string article_adr;\r\n        //文章id\r\n        uint id;\r\n        //阅读次数\r\n        uint read_num;\r\n        //设置是否对他人可见\r\n        bool can_read;\r\n    }\r\n\r\n    //存储文章信息的结构数组\r\n    //Article[] public arting;\r\n    mapping (uint => Article) arting;\r\n    //文章的序列号\r\n    uint numArticle;\r\n\r\n    //上传文章\r\n    function uploadArticle(string article_adr) returns (uint) {\r\n        numArticle++;\r\n        arting[numArticle] = Article(msg.sender,article_adr,numArticle,0,true);\r\n        return numArticle;\r\n    }\r\n\r\n    //获取文章\r\n    function getArticle(uint id) public returns (string article_adr) {\r\n        if(id > numArticle || id < 0)\r\n            article_adr = \"error id!\";\r\n        else {\r\n            Article c = arting[id];\r\n            if(c.author_adr != msg.sender && c.can_read != true)\r\n                article_adr = \"You don't have power to read!\";\r\n            else {\r\n                article_adr = c.article_adr;\r\n                arting[id].read_num++;\r\n            }\r\n        }\r\n    }\r\n\r\n    //获得阅读次数\r\n    function getReadnum(uint id) public returns (uint ReadNum) {\r\n        if(id > numArticle || id < 0)\r\n            ReadNum = 0;\r\n        else {\r\n            Article c = arting[id];\r\n            ReadNum = c.read_num;\r\n        }\r\n    }\r\n\r\n    //设置自己的文章访问权限\r\n    function setReadPower(uint id) public returns (bool is_success) {\r\n        if(id > numArticle || id < 0)\r\n            is_success = false;\r\n        else {\r\n            Article c = arting[id];\r\n            if(c.author_adr != msg.sender)\r\n                is_success = false;\r\n            else {\r\n                is_success = true;\r\n                if(c.can_read == true)\r\n                    arting[id].can_read = false;\r\n                else\r\n                    arting[id].can_read = true;\r\n            }\r\n        }\r\n    }\r\n\r\n    //查看文章阅读权限\r\n    function checkReadPower(uint id) public returns (bool ReadPower) {\r\n        Article c = arting[id];\r\n        ReadPower = c.can_read;\r\n    }\r\n}\r\n",
  "sourcePath": "C:\\Users\\LYM\\Desktop\\Article\\contracts\\Uptxt.sol",
  "compiler": {
    "name": "solc",
    "version": "0.4.24+commit.e67f0147.Emscripten.clang"
  },
  "schemaVersion": "2.0.1",
  "updatedAt": "2018-12-30T08:17:17.785Z"
}